{
  "address": "0xB7f8BC63BbcaD18155201308C8f3540b07f84F5e",
  "abi": [
    {
      "inputs": [],
      "name": "getCallData",
      "outputs": [
        {
          "internalType": "bytes",
          "name": "",
          "type": "bytes"
        }
      ],
      "stateMutability": "pure",
      "type": "function"
    }
  ],
  "transactionHash": "0x566200f4f7c264f6f551b9b11704c2fca1d77fafc4e768fdf3c93c063e3ef399",
  "args": [],
  "numDeployments": 3,
  "solcInputHash": "422bdef9f596b7500a2a764d772cfbaa",
  "bytecode": "0x608060405234801561001057600080fd5b50610108806100206000396000f3fe6080604052348015600f57600080fd5b506004361060285760003560e01c80630bf9aa4c14602d575b600080fd5b60726040516001602482015260609060009060440160408051601f198184030181529190526020810180516001600160e01b031663fe4b84df60e01b17905292915050565b604051607d91906086565b60405180910390f35b600060208083528351808285015260005b8181101560b1578581018301518582016040015282016097565b506000604082860101526040601f19601f830116850101925050509291505056fea264697066735822122044badb1361bc7d76fd0e1b46ed2209ade84a4b288e9d30dfa4a7506074737cb864736f6c63430008120033",
  "devdoc": {
    "kind": "dev",
    "methods": {},
    "version": 1
  },
  "userdoc": {
    "kind": "user",
    "methods": {},
    "version": 1
  },
  "storageLayout": {
    "storage": [],
    "types": null
  }
}